{
  "address": "0x76bCB00Bb939C4DF2b382d5dDc204Be71d848cAE",
  "abi": [
    {
      "inputs": [
        {
          "internalType": "address",
          "name": "exampleExternalContractAddress",
          "type": "address"
        }
      ],
      "stateMutability": "nonpayable",
      "type": "constructor"
    },
    {
      "anonymous": false,
      "inputs": [
        {
          "indexed": false,
          "internalType": "address",
          "name": "",
          "type": "address"
        },
        {
          "indexed": false,
          "internalType": "uint256",
          "name": "",
          "type": "uint256"
        }
      ],
      "name": "Stake",
      "type": "event"
    },
    {
      "inputs": [],
      "name": "Threshold",
      "outputs": [
        {
          "internalType": "uint256",
          "name": "",
          "type": "uint256"
        }
      ],
      "stateMutability": "view",
      "type": "function"
    },
    {
      "inputs": [
        {
          "internalType": "address",
          "name": "",
          "type": "address"
        }
      ],
      "name": "balances",
      "outputs": [
        {
          "internalType": "uint256",
          "name": "",
          "type": "uint256"
        }
      ],
      "stateMutability": "view",
      "type": "function"
    },
    {
      "inputs": [],
      "name": "deadline",
      "outputs": [
        {
          "internalType": "uint256",
          "name": "",
          "type": "uint256"
        }
      ],
      "stateMutability": "view",
      "type": "function"
    },
    {
      "inputs": [],
      "name": "exampleExternalContract",
      "outputs": [
        {
          "internalType": "contract ExampleExternalContract",
          "name": "",
          "type": "address"
        }
      ],
      "stateMutability": "view",
      "type": "function"
    },
    {
      "inputs": [],
      "name": "execute",
      "outputs": [],
      "stateMutability": "payable",
      "type": "function"
    },
    {
      "inputs": [],
      "name": "openForWithdraw",
      "outputs": [
        {
          "internalType": "bool",
          "name": "",
          "type": "bool"
        }
      ],
      "stateMutability": "view",
      "type": "function"
    },
    {
      "inputs": [],
      "name": "receive",
      "outputs": [],
      "stateMutability": "payable",
      "type": "function"
    },
    {
      "inputs": [],
      "name": "stake",
      "outputs": [],
      "stateMutability": "payable",
      "type": "function"
    },
    {
      "inputs": [],
      "name": "threshold",
      "outputs": [
        {
          "internalType": "uint256",
          "name": "",
          "type": "uint256"
        }
      ],
      "stateMutability": "view",
      "type": "function"
    },
    {
      "inputs": [],
      "name": "timeLeft",
      "outputs": [
        {
          "internalType": "uint256",
          "name": "",
          "type": "uint256"
        }
      ],
      "stateMutability": "view",
      "type": "function"
    },
    {
      "inputs": [],
      "name": "withdraw",
      "outputs": [],
      "stateMutability": "payable",
      "type": "function"
    }
  ],
  "transactionHash": "0xcf8acc946bd597e401f32ed3a4ff3ffc8e28140a670928e2adab2debd380191e",
  "args": [
    "0x0fcfBcD8b95CdFDDa1fd3BB3eA0eEd4B0411B2C2"
  ],
  "numDeployments": 1,
  "solcInputHash": "de08947e600d3c10a645339156183f3e",
  "bytecode": "0x6080604052610011426203f48061009e565b600255670de0b6b3a764000060035534801561002c57600080fd5b5060405161062238038061062283398101604081905261004b91610070565b600080546001600160a01b0319166001600160a01b03929092169190911790556100c2565b600060208284031215610081578081fd5b81516001600160a01b0381168114610097578182fd5b9392505050565b600082198211156100bd57634e487b7160e01b81526011600452602481fd5b500190565b610551806100d16000396000f3fe60806040526004361061009c5760003560e01c806342cde4e81161006457806342cde4e81461011e578063614619541461013a5780639876a643146101425780639f75f2271461016c578063a3e76c0f146101a4578063fd7babb8146101ac57600080fd5b80631300a6d1146100a157806327e235e3146100c957806329dcb0cf146100f65780633a4b66f11461010c5780633ccfd60b14610116575b600080fd5b3480156100ad57600080fd5b506100b66101c2565b6040519081526020015b60405180910390f35b3480156100d557600080fd5b506100b66100e4366004610488565b60016020526000908152604090205481565b34801561010257600080fd5b506100b660025481565b6101146101e6565b005b610114610244565b34801561012a57600080fd5b506100b6670de0b6b3a764000081565b61011461031e565b34801561014e57600080fd5b5060045461015c9060ff1681565b60405190151581526020016100c0565b34801561017857600080fd5b5060005461018c906001600160a01b031681565b6040516001600160a01b0390911681526020016100c0565b610114610480565b3480156101b857600080fd5b506100b660035481565b600060025442106101d35750600090565b426002546101e191906104ee565b905090565b33600090815260016020526040812080543492906102059084906104d6565b9091555050604080513381523460208201527febedb8b3c678666e7f36970bc8f57abf6d8fa2e828c0da91ea5b75bf68ed101a910160405180910390a1565b60025442101561025357600080fd5b60045460ff1661026257600080fd5b336000908152600160205260409020548061027c57600080fd5b336000818152600160205260408082208290555190919083908381818185875af1925050503d80600081146102cd576040519150601f19603f3d011682016040523d82523d6000602084013e6102d2565b606091505b505090508061031a5760405162461bcd60e51b815260206004820152600f60248201526e15da5d1a191c985dc819985a5b1959608a1b60448201526064015b60405180910390fd5b5050565b60008054906101000a90046001600160a01b03166001600160a01b0316639d9a7fe96040518163ffffffff1660e01b815260040160206040518083038186803b15801561036a57600080fd5b505afa15801561037e573d6000803e3d6000fd5b505050506040513d601f19601f820116820180604052508101906103a291906104b6565b156103ef5760405162461bcd60e51b815260206004820152601960248201527f5461736b20697320616c726561647920636f6d706c65746564000000000000006044820152606401610311565b6002544210156103fe57600080fd5b60035447106104705760008054906101000a90046001600160a01b03166001600160a01b031663522e1177476040518263ffffffff1660e01b81526004016000604051808303818588803b15801561045557600080fd5b505af1158015610469573d6000803e3d6000fd5b5050505050565b6004805460ff191660011790555b565b61047e6101e6565b600060208284031215610499578081fd5b81356001600160a01b03811681146104af578182fd5b9392505050565b6000602082840312156104c7578081fd5b815180151581146104af578182fd5b600082198211156104e9576104e9610505565b500190565b60008282101561050057610500610505565b500390565b634e487b7160e01b600052601160045260246000fdfea2646970667358221220a1c1be93ebc78c9ce727cce91f0ab73d73065ab11b808d41593b684c8c0cda0664736f6c63430008040033",
  "devdoc": {
    "kind": "dev",
    "methods": {},
    "version": 1
  },
  "userdoc": {
    "kind": "user",
    "methods": {},
    "version": 1
  },
  "storageLayout": {
    "storage": [
      {
        "astId": 19,
        "contract": "contracts/Staker.sol:Staker",
        "label": "exampleExternalContract",
        "offset": 0,
        "slot": "0",
        "type": "t_contract(ExampleExternalContract)12"
      },
      {
        "astId": 23,
        "contract": "contracts/Staker.sol:Staker",
        "label": "balances",
        "offset": 0,
        "slot": "1",
        "type": "t_mapping(t_address,t_uint256)"
      },
      {
        "astId": 38,
        "contract": "contracts/Staker.sol:Staker",
        "label": "deadline",
        "offset": 0,
        "slot": "2",
        "type": "t_uint256"
      },
      {
        "astId": 41,
        "contract": "contracts/Staker.sol:Staker",
        "label": "Threshold",
        "offset": 0,
        "slot": "3",
        "type": "t_uint256"
      },
      {
        "astId": 43,
        "contract": "contracts/Staker.sol:Staker",
        "label": "openForWithdraw",
        "offset": 0,
        "slot": "4",
        "type": "t_bool"
      }
    ],
    "types": {
      "t_address": {
        "encoding": "inplace",
        "label": "address",
        "numberOfBytes": "20"
      },
      "t_bool": {
        "encoding": "inplace",
        "label": "bool",
        "numberOfBytes": "1"
      },
      "t_contract(ExampleExternalContract)12": {
        "encoding": "inplace",
        "label": "contract ExampleExternalContract",
        "numberOfBytes": "20"
      },
      "t_mapping(t_address,t_uint256)": {
        "encoding": "mapping",
        "key": "t_address",
        "label": "mapping(address => uint256)",
        "numberOfBytes": "32",
        "value": "t_uint256"
      },
      "t_uint256": {
        "encoding": "inplace",
        "label": "uint256",
        "numberOfBytes": "32"
      }
    }
  }
}